:1000000009C016C015C014C013C012C069C010C00A
:1000100076C00EC011241FBECFE9CDBF20E0A0E600
:10002000B0E001C01D92A236B207E1F79DD0DAC060
:10003000E7CFF894A89514BE88E981BD81E681BD1B
:10004000789408958AB780628ABFF3DF85B78062AB
:1000500085BF889585B78F7D85BF0895BC0140E039
:1000600050E01EC098B3906198BB81E28A95F1F789
:10007000000098B39F7E98BB91E29A95F1F700003B
:100080002F5F3F4F02C020E030E02035310554F3B0
:1000900087EA91E60197F1F700C000004F5F5F4FDC
:1000A0004617570784F30895837087B986B1806433
:1000B00086B93699FECF84B195B1089587B384602F
:1000C00087BB88B3846088BB2FE382E49FE0215024
:1000D00080409040E1F700C0000082E0E5DF089535
:1000E0001F920F920FB60F9211248F9386B78150F3
:1000F00086BF8F910F900FBE0F901F9018951F9283
:100100000F920FB60F9211242F933F934F935F934B
:100110006F937F938F939F93AF93BF93EF93FF93CF
:100120000FB6F894A89581B5886181BD11BC0FBE4A
:1001300080916100803118F01092610004C08F5FDF
:10014000809361007FDFFF91EF91BF91AF919F910D
:100150008F917F916F915F914F913F912F910F9070
:100160000FBE0F901F90189564DF80E888B984B3A4
:100170008C6084BB81E187BB92E098BB85B7877EAA
:10018000806185BF80E28BBF95BB7894B19903C035
:1001900081E090E063DF86B1806886B9809160007D
:1001A000803148F08BDF883E964018F488E090E07C
:1001B00055DF1092600088B3816088BB89E28A9520
:1001C000F1F700C083E070DF8115924018F482E0FF
:1001D00090E044DFB19BF6CF88B388BB86B18F77C0
:0801E00086B9D4CFF894FFCFDB
:00000001FF
